:100000000C9444010C9475010C9475010C947501C9
:100010000C9475010C9475010C9475010C94750188
:100020000C9475010C9475010C9475010C94750178
:100030000C9475010C9475010C9475010C94750168
:100040000C9475010C9475010C9475010C94750158
:100050000C9475010C9475010C9475010C94E709CE
:100060000C9475010C94FF040C9457060C947501C4
:100070000C9475010C9475010C9475010C94750128
:100080000C9475010C9475010C9475010C94750118
:100090000C943F050C9496060C9475010C94750114
:1000A0000C9475010C9475010C9475010C947501F8
:1000B0000C9475010C9475010C9475010C947501E8
:1000C0000C9475010C9475010C9475010C947F05CA
:1000D0000C94D5060C9475010C94BF050C94140770
:1000E0000C9475011C041F04120416045604230406
:1000F00027042D04310435043B043F044304560413
:1001000049044D0451040C94BD090C9437080C9417
:1001100056040C942D040C9487080C9443040C94FE
:100120000E080C943F040C9423040C9449040C9482
:10013000FE050C941C040C9447080C9412040C94B7
:100140003B040C9451040C9427040C9416040C9456
:100150001F040C94DA070C9431040C9435040C94AD
:100160004D040C94EE070000090A02080B0C0D0761
:100170000603040100000000000000000000000071
:10018000000000000000000000000000000000006F
:10019000000011100F00000000000000000000002F
:1001A000000000000000000000000000010210201C
:1001B000200808102040102040800201020108049D
:1001C0000201010204081020408080402010080431
:1001D000020180040201804020100804020108048A
:1001E00002010102040810204080010204081020CE
:1001F00040800505050507050808080802020202F7
:100200000A0A0808040404040101010101010101B2
:100210000303030303030303040707070C0C0C0C7D
:100220000C0C0C0C02020202060606060606060666
:100230000B0B0B0B0B0B0B0B0000200023002600FD
:1002400029002C002F0032000001000003010601EC
:10025000090100002200250028002B002E0031009B
:10026000340002010000050108010B01000021001B
:10027000240027002A002D00300033000101000077
:10028000040107010A01870811241FBECFEFD1E244
:10029000DEBFCDBF00E00CBF12E0A0E0B2E0E2EDB7
:1002A000F5E100E00BBF02C007900D92A635B10743
:1002B000D9F71DE0A6E5B2E001C01D92AB3BB10746
:1002C000E1F712E0C8E8D2E000E006C02297010999
:1002D000FE010BBF0E94E30AC638D10780E0080781
:1002E000A9F70E94ED040C94E70A0C9400000F9308
:1002F0001F93009751F4FA01EE0FFF1FEE0FFF1F3F
:10030000E40FF51FE20FF31F64C08130910559F52A
:100310004115510509F45CC04130510519F4FB0148
:10032000359683C04230510519F4FB0139967DC0E2
:100330004330510509F45FC04430510509F467C0EA
:100340004530510519F4FB0179966FC046305105CF
:1003500019F4FB017D9669C04730510509F074C05E
:10036000FB01B09662C08230910561F541155105DF
:1003700079F14130510519F4FB01379656C04230EE
:10038000510519F4FB013E9650C04330510519F454
:10039000FB0175964AC04430510509F444C045300C
:1003A000510519F4FB01B39640C04630510519F4CC
:1003B000FB01BA963AC04730510509F045C0FB0130
:1003C000F19633C0039709F03FC04115510521F460
:1003D000F901E60FF71F2BC04130510519F4FB015D
:1003E000349623C04230510519F4FB0138961DC0E4
:1003F0004330510519F4FB013C9617C044305105B8
:1004000019F4FB01709611C04530510519F4FB0138
:1004100074960BC04630510519F4FB01789605C05F
:100420004730510589F4FB017C96E20FF31FC801A8
:10043000880F991F800F911F880F991F880F991F90
:10044000E80FF91FCF0100C01F910F910895BF92CF
:10045000CF92DF92EF92FF920F931F93CF93DF9390
:100460001EE1C12E12E0D12EEE24FF24F601B08051
:100470008B2D61E00E94930406E312E0E701CC0FAC
:10048000DD1FCA5ADD4FF80180810E94C3049983A1
:1004900088830E5F1F4F6896F2E006341F0799F7B6
:1004A0008B2D60E00E9493040894E11CF11C82E013
:1004B00090E0C80ED91E9CE0E916F104B9F6DF9170
:1004C000CF911F910F91FF90EF90DF90CF90BF9051
:1004D00008958CE261E00E9457048AE261E00E9484
:1004E000570488E261E00E94570486E261E00E94BE
:1004F000570484E261E00E94570482E261E00E94B6
:10050000570480E261E00E9457048EE161E00E949E
:1005100057048CE161E00E9457048AE161E00E9487
:10052000570488E161E00E94570486E161E00E947F
:10053000570485E260E00E94570483E260E00E9475
:10054000570481E260E00E9457048FE160E00E945E
:1005500057048DE160E00E9457048BE160E00E9447
:10056000570489E160E00E94570487E160E00E943F
:1005700057048AE29DE042E15AE760E070E00E94A1
:1005800053070895EF92FF920F931F93282FF62E93
:10059000E42E0AE21DE0C801622F0E944708C8014C
:1005A0006F2D0E944708C8016E2D0E9447081F91B9
:1005B0000F91FF90EF90089580579F4F0E94C202C5
:1005C00008952F923F924F925F926F927F928F92F7
:1005D0009F92AF92BF92CF92DF92EF92FF920F93D2
:1005E0001F93DF93CF93CDB7DEB728970FB6F8945C
:1005F000DEBF0FBECDBF0E94270220915602309170
:1006000057023E832D8380915802909159029C831A
:100610008B83E0915A02F0915B02FA83E983209088
:100620005C0230905D0240906C0250906D026090D0
:100630001C0270901D028090060B9090070BC090DA
:10064000080BD090090BEE24FF247CC02F81388545
:10065000232B11F53BE0E316F104F1F48D819E812B
:10066000892B19F0CC24DD2451C0EB81FC81EF2BC8
:1006700021F0A1E0CA2ED12C49C029813A81232B37
:1006800021F0F2E0CF2ED12C41C021143104F1F140
:10069000E3E0CE2ED12C3AC0F50180819181892BE7
:1006A000E9F041145104D1F4C601B7014F815885D6
:1006B000930184010E947701EF81F885F695FE2F62
:1006C000EE27F795E7952F813885E21BF30BE80FAE
:1006D000F91FEA5EFC4F31E0308318C0C601B70154
:1006E0004F815885930184010E947701EF81F8853D
:1006F000F695FE2FEE27F795E7952F813885E21BBB
:10070000F30BE80FF91FEA5EFC4F10828F8198858A
:10071000019698878F83E8E1F0E0AE0EBF1E089740
:1007200009F094CF0894E11CF11CFCE0EF16F104F1
:1007300049F4D092090BC092080B00E010E0BB24F2
:10074000B39435C05701AA0CBB1C26E532E0A20EBB
:10075000B31E18861F827ACFF6019081F70180813F
:10076000981799F0992349F0C801B40144E650E084
:100770000E94DC02F701B08208C0C801B40140E069
:1007800050E00E94DC02F70110820894811C911C49
:100790000894C11CD11C0894E11CF11CFFE78F16C2
:1007A0009104D1F60F5F1F4F08301105B9F0C80151
:1007B0009695982F882797958795801B910B36E102
:1007C000C32E33E0D32EC80ED91E2EE0E22E27E032
:1007D000F22EE80EF91E88249924BECF28960FB673
:1007E000F894DEBF0FBECDBFCF91DF911F910F9167
:1007F000FF90EF90DF90CF90BF90AF909F908F9041
:100800007F906F905F904F903F902F90089590E071
:10081000FC013197E131F10508F048C0EE58FF4F77
:100820000C94C90A809180008F7703C0809180006A
:100830008F7D80938000089584B58F7702C084B542
:100840008F7D84BD08958091B0008F7703C0809123
:10085000B0008F7D8093B0000895809190008F77D5
:1008600007C0809190008F7D03C080919000877FAA
:100870008093900008958091A0008F7707C08091A9
:10088000A0008F7D03C08091A000877F8093A0008F
:100890000895809120018F7707C0809120018F7D7E
:1008A00003C080912001877F809320010895CF931A
:1008B000DF9390E0FC01E455FE4F2491FC01EE50E3
:1008C000FE4F8491882361F190E0880F991FFC010D
:1008D000E459FD4FC591D491FC01EE5AFD4FA5910D
:1008E000B491611109C09FB7F89488812095822343
:1008F0008883EC912E230BC0623061F49FB7F8948B
:100900003881822F809583238883EC912E2B2C9322
:100910009FBF06C08FB7F894E8812E2B28838FBF26
:10092000DF91CF9108951F93CF93DF93282F30E06D
:10093000F901EA59FE4F8491F901E455FE4FD49133
:10094000F901EE50FE4FC491CC23C9F0162F81114E
:100950000E940704EC2FF0E0EE0FFF1FEE5AFD4F50
:10096000A591B4918FB7F894111105C09C91ED2F0A
:10097000E095E92302C0EC91ED2BEC938FBFDF9162
:10098000CF911F910895CF93DF93282F30E0F90185
:10099000EA59FE4F8491F901E455FE4FD491F901D3
:1009A000EE50FE4FC491CC2391F081110E940704B8
:1009B000EC2FF0E0EE0FFF1FE85CFD4FA591B49126
:1009C000EC91ED2381E090E021F480E002C080E032
:1009D00090E0DF91CF9108950895CF93DF930E9427
:1009E000310A0E94EC040E946902CEEFD5E00E9419
:1009F000E1022097E1F30E94FE05F9CF08951F92CE
:100A00000F920FB60F920BB60F9211242F933F93B4
:100A10004F938F939F93EF93FF938091C00082FD3C
:100A20001DC04091C60020914A0B30914B0B2F5FA7
:100A30003F4F2F73307080914C0B90914D0B2817C6
:100A4000390771F0E0914A0BF0914B0BE65FF44FE0
:100A5000408330934B0B20934A0B02C08091C60019
:100A6000FF91EF919F918F914F913F912F910F9017
:100A70000BBE0F900FBE0F901F90189508951F92F8
:100A80000F920FB60F920BB60F9211242F933F9334
:100A90004F938F939F93EF93FF938091C80082FDB4
:100AA0001DC04091CE002091D20B3091D30B2F5F0F
:100AB0003F4F2F7330708091D40B9091D50B281736
:100AC000390771F0E091D20BF091D30BEE56F44F51
:100AD00040833093D30B2093D20B02C08091CE0081
:100AE000FF91EF919F918F914F913F912F910F9097
:100AF0000BBE0F900FBE0F901F90189508951F9278
:100B00000F920FB60F920BB60F9211242F933F93B3
:100B10004F938F939F93EF93FF938091D00082FD2B
:100B20001DC04091D60020915A0C30915B0C2F5F74
:100B30003F4F2F73307080915C0C90915D0C2817A3
:100B4000390771F0E0915A0CF0915B0CE65EF34FBF
:100B5000408330935B0C20935A0C02C08091D600E6
:100B6000FF91EF919F918F914F913F912F910F9016
:100B70000BBE0F900FBE0F901F90189508951F92F7
:100B80000F920FB60F920BB60F9211242F933F9333
:100B90004F938F939F93EF93FF938091300182FD4A
:100BA0001DC0409136012091E20C3091E30C2F5F83
:100BB0003F4F2F7330708091E40C9091E50C281713
:100BC000390771F0E091E20CF091E30CEE55F34F30
:100BD00040833093E30C2093E20C02C080913601F5
:100BE000FF91EF919F918F914F913F912F910F9096
:100BF0000BBE0F900FBE0F901F901895E091360D11
:100C0000F091370DE05CFF4F81919191208131810E
:100C1000805C9F4F821B930B60E470E00E94930AFC
:100C2000892B11F00E94FE04E091580DF091590DAE
:100C3000E05CFF4F8191919120813181805C9F4FD9
:100C4000821B930B60E470E00E94930A892B11F0E1
:100C50000E943E05E0917A0DF0917B0DE05CFF4F24
:100C60008191919120813181805C9F4F821B930BF8
:100C700060E470E00E94930A892B11F00E947E05C7
:100C8000E0919C0DF0919D0DE05CFF4F8191919161
:100C900020813181805C9F4F821B930B60E470E068
:100CA0000E94930A892B11F00E94BE0508951F929D
:100CB0000F920FB60F920BB60F9211242F933F9302
:100CC0008F939F93EF93FF9320918E0B30918F0B17
:100CD0008091900B9091910B2817390731F48091F6
:100CE000C1008F7D8093C10014C0E091900BF09102
:100CF000910BE25BF44F20818091900B9091910BCE
:100D000001968F7390709093910B8093900B20932A
:100D1000C600FF91EF919F918F913F912F910F907E
:100D20000BBE0F900FBE0F901F9018951F920F9241
:100D30000FB60F920BB60F9211242F933F938F9300
:100D40009F93EF93FF932091160C3091170C809195
:100D5000180C9091190C2817390731F48091C900AB
:100D60008F7D8093C90014C0E091180CF091190C8C
:100D7000EA52F44F20818091180C9091190C019641
:100D80008F7390709093190C8093180C2093CE0061
:100D9000FF91EF919F918F913F912F910F900BBEFB
:100DA0000F900FBE0F901F9018951F920F920FB6C5
:100DB0000F920BB60F9211242F933F938F939F9313
:100DC000EF93FF9320919E0C30919F0C8091A00C8B
:100DD0009091A10C2817390731F48091D1008F7DB3
:100DE0008093D10014C0E091A00CF091A10CE25AC4
:100DF000F34F20818091A00C9091A10C01968F73EC
:100E000090709093A10C8093A00C2093D600FF913A
:100E1000EF919F918F913F912F910F900BBE0F906B
:100E20000FBE0F901F9018951F920F920FB60F9242
:100E30000BB60F9211242F933F938F939F93EF93B1
:100E4000FF932091260D3091270D8091280D9091D0
:100E5000290D2817390731F4809131018F7D809356
:100E6000310114C0E091280DF091290DEA51F34FA2
:100E700020818091280D9091290D01968F7390709B
:100E80009093290D8093280D20933601FF91EF91C7
:100E90009F918F913F912F910F900BBE0F900FBE9E
:100EA0000F901F901895AF92BF92DF92EF92FF9232
:100EB0000F931F93CF93DF93EC017A018B01DD2415
:100EC000403081EE580780E0680780E0780711F035
:100ED000DD24D39491E0A92EB12CEC89FD89DD208D
:100EE00069F0C50108A002C0880F991F0A94E2F7B3
:100EF000808360E079E08DE390E005C0108260E8D7
:100F000074E88EE190E0A80197010E94A70A2150A1
:100F1000304040405040569547953795279580E1A1
:100F20002030380720F0DD2011F0DD24D6CFE8890D
:100F3000F9893083EA89FB89208319A2EE89FF8928
:100F4000408121E030E0C9010C8C02C0880F991F5C
:100F50000A94E2F7482B4083EE89FF894081C9015A
:100F60000D8C02C0880F991F0A94E2F7482B40832A
:100F7000EE89FF894081C9010E8C02C0880F991F3C
:100F80000A94E2F7482B4083EE89FF8980810F8C19
:100F900002C0220F331F0A94E2F7209528232083F2
:100FA000DF91CF911F910F91FF90EF90DF90BF9055
:100FB000AF900895DC011C96ED91FC911D97E05CCB
:100FC000FF4F8191919120813181805C9F4F821BE5
:100FD000930B60E470E00E94930A0895DC011C9674
:100FE000ED91FC911D97E05CFF4F20813181E05431
:100FF000F040DF01AE5BBF4F8D919C911197281798
:10100000390719F42FEF3FEF07C08D919C91E80F3E
:10101000F91F8081282F30E0C9010895DC011C965A
:10102000ED91FC911D97E05CFF4F20813181E054F0
:10103000F040DF01AE5BBF4F8D919C911197281757
:10104000390719F42FEF3FEF10C08D919C91119744
:10105000E80FF91F20818D919C91119701968F7354
:10106000907011969C938E9330E0C9010895DC0135
:1010700091968C919197882339F05496ED91FC913B
:101080005597808186FFF9CF91961C920895CF9352
:10109000DF93EC01EE85FF85E05CFF4F208131811D
:1010A000E054F0402F5F3F4F2F733070DF01AE5B95
:1010B000BF4F8D919C91119728173907D1F3E05CB0
:1010C000FF4F80819181E054F040E80FF91F608369
:1010D000EE85FF85E05CFF4F31832083EE89FF8939
:1010E000208181E090E00F8C02C0880F991F0A9444
:1010F000E2F7282B208381E089A3EC89FD89808198
:101100008064808381E090E0DF91CF9108951F9308
:1011100010922D0D10922C0D28EE33E040E050E09F
:1011200020932E0D30932F0D4093300D5093310DA1
:101130006AE472E070932B0D60932A0D8AE09BE0C5
:101140009093370D8093360D8EE49BE09093390D8C
:101150008093380D85EC90E090933B0D80933A0D91
:1011600084EC90E090933D0D80933C0D80EC90E0FA
:1011700090933F0D80933E0D81EC90E09093410D54
:101180008093400D82EC90E09093430D8093420D4C
:1011900086EC90E09093450D8093440D14E01093FD
:1011A000460DB3E0B093470DA7E0A093480DF5E0DE
:1011B000F093490DE1E0E0934A0D10924F0D10922B
:1011C0004E0D2093500D3093510D4093520D50937E
:1011D000530D70934D0D60934C0D82E99BE09093FD
:1011E000590D8093580D86ED9BE090935B0D809395
:1011F0005A0D8DEC90E090935D0D80935C0D8CEC1E
:1012000090E090935F0D80935E0D88EC90E090935A
:10121000610D8093600D89EC90E09093630D809355
:10122000620D8AEC90E09093650D8093640D8EECD6
:1012300090E09093670D8093660D1093680DB093C6
:10124000690DA0936A0DF0936B0DE0936C0D1092F5
:10125000710D1092700D2093720D3093730D4093A9
:10126000740D5093750D70936F0D60936E0D8AE140
:101270009CE090937B0D80937A0D8EE59CE090939B
:101280007D0D80937C0D85ED90E090937F0D809394
:101290007E0D84ED90E09093810D8093800D80ED24
:1012A00090E09093830D8093820D81ED90E0909378
:1012B000850D8093840D82ED90E09093870D80934F
:1012C000860D86ED90E09093890D8093880D1093A4
:1012D0008A0DB0938B0DA0938C0DF0938D0DE09340
:1012E0008E0D1092930D1092920D2093940D3093C9
:1012F000950D4093960D5093970D7093910D6093BB
:10130000900D82EA9CE090939D0D80939C0D86EE5B
:101310009CE090939F0D80939E0D85E391E09093C8
:10132000A10D8093A00D84E391E09093A30D809391
:10133000A20D80E391E09093A50D8093A40D81E32D
:1013400091E09093A70D8093A60D82E391E0909396
:10135000A90D8093A80D86E391E09093AB0D809347
:10136000AA0D1093AC0DB093AD0DA093AE0DF093FC
:10137000AF0DE093B00D1F910895CF92DF92EF92E1
:10138000FF920F931F93CF93DF937C016B018A0130
:10139000C0E0D0E00FC0D6016D916D01D701ED9195
:1013A000FC910190F081E02DC7011995C80FD91F5C
:1013B000015010400115110571F7CE01DF91CF9159
:1013C0001F910F91FF90EF90DF90CF9008951F92A3
:1013D0000F920FB60F9211242F933F938F939F93E9
:1013E000AF93BF938091B30D9091B40DA091B50DC3
:1013F000B091B60D3091B20D23E0230F2D3720F4BC
:101400000196A11DB11D05C026E8230F0296A11D5E
:10141000B11D2093B20D8093B30D9093B40DA093A2
:10142000B50DB093B60D8091B70D9091B80DA09108
:10143000B90DB091BA0D0196A11DB11D8093B70DE4
:101440009093B80DA093B90DB093BA0DBF91AF9121
:101450009F918F913F912F910F900FBE0F901F90F2
:101460001895789484B5826084BD84B5816084BD0C
:1014700085B5826085BD85B5816085BDEEE6F0E00D
:10148000808181608083E1E8F0E010828081826069
:101490008083808181608083E0E8F0E080818160EA
:1014A0008083E1EBF0E0808184608083E0EBF0E01A
:1014B000808181608083E1E9F0E0808182608083C7
:1014C000808181608083E0E9F0E0808181608083B9
:1014D000E1EAF0E0808182608083808181608083A6
:1014E000E0EAF0E0808181608083E1E2F1E08081E8
:1014F00082608083808181608083E0E2F1E080818E
:1015000081608083EAE7F0E080818460808380816D
:101510008260808380818160808380818068808315
:101520001092C100089597FB072E16F4009407D07F
:1015300077FD09D00E94CF0A07FC05D03EF49095B4
:1015400081959F4F0895709561957F4F0895A1E211
:101550001A2EAA1BBB1BFD010DC0AA1FBB1FEE1F2D
:10156000FF1FA217B307E407F50720F0A21BB30B78
:10157000E40BF50B661F771F881F991F1A9469F7F4
:1015800060957095809590959B01AC01BD01CF0150
:101590000895EE0FFF1F0590F491E02D1994AA1BFA
:1015A000BB1B51E107C0AA1FBB1FA617B70710F04E
:1015B000A61BB70B881F991F5A95A9F78095909580
:1015C000BC01CD0108950790F691E02D1994F8948F
:0215D000FFCF4B
:1015D20063002D003A002D6E6F74612D00006E6164
:1015E2006E00696E66006F7666002E0023002C0086
:1015F2002A00280026002400220020001E001C00D1
:101602001A00180016002500230021001F001D00EB
:101612001B0019001700000000004708BD09DA0787
:061622000E08EE07370878
:00000001FF
